{
  "contractName": "publicFIR",
  "abi": [
    {
      "constant": true,
      "inputs": [],
      "name": "firid",
      "outputs": [
        {
          "name": "",
          "type": "uint256"
        }
      ],
      "payable": false,
      "stateMutability": "view",
      "type": "function"
    },
    {
      "constant": true,
      "inputs": [
        {
          "name": "",
          "type": "uint256"
        }
      ],
      "name": "progresses",
      "outputs": [
        {
          "name": "id",
          "type": "uint256"
        },
        {
          "name": "firid",
          "type": "uint256"
        },
        {
          "name": "update",
          "type": "string"
        },
        {
          "name": "timestamp",
          "type": "uint256"
        },
        {
          "name": "officer",
          "type": "address"
        }
      ],
      "payable": false,
      "stateMutability": "view",
      "type": "function"
    },
    {
      "constant": true,
      "inputs": [],
      "name": "id",
      "outputs": [
        {
          "name": "",
          "type": "uint256"
        }
      ],
      "payable": false,
      "stateMutability": "view",
      "type": "function"
    },
    {
      "constant": true,
      "inputs": [
        {
          "name": "",
          "type": "uint256"
        }
      ],
      "name": "reports",
      "outputs": [
        {
          "name": "id",
          "type": "uint256"
        },
        {
          "name": "name",
          "type": "string"
        },
        {
          "name": "complaint",
          "type": "string"
        },
        {
          "name": "imp",
          "type": "uint8"
        },
        {
          "name": "resolved",
          "type": "bool"
        },
        {
          "name": "timestamp",
          "type": "uint256"
        },
        {
          "name": "reporter",
          "type": "address"
        }
      ],
      "payable": false,
      "stateMutability": "view",
      "type": "function"
    },
    {
      "anonymous": false,
      "inputs": [
        {
          "indexed": false,
          "name": "id",
          "type": "uint256"
        },
        {
          "indexed": false,
          "name": "name",
          "type": "string"
        },
        {
          "indexed": false,
          "name": "complaint",
          "type": "string"
        },
        {
          "indexed": false,
          "name": "imp",
          "type": "uint8"
        },
        {
          "indexed": false,
          "name": "resolved",
          "type": "bool"
        },
        {
          "indexed": false,
          "name": "timestamp",
          "type": "uint256"
        },
        {
          "indexed": false,
          "name": "reporter",
          "type": "address"
        }
      ],
      "name": "reported",
      "type": "event"
    },
    {
      "anonymous": false,
      "inputs": [
        {
          "indexed": false,
          "name": "id",
          "type": "uint256"
        },
        {
          "indexed": false,
          "name": "firid",
          "type": "uint256"
        },
        {
          "indexed": false,
          "name": "update",
          "type": "string"
        },
        {
          "indexed": false,
          "name": "timestamp",
          "type": "uint256"
        },
        {
          "indexed": false,
          "name": "officer",
          "type": "address"
        }
      ],
      "name": "updated",
      "type": "event"
    },
    {
      "constant": false,
      "inputs": [
        {
          "name": "_name",
          "type": "string"
        },
        {
          "name": "_complaint",
          "type": "string"
        },
        {
          "name": "_imp",
          "type": "uint8"
        }
      ],
      "name": "reportcomplaint",
      "outputs": [],
      "payable": false,
      "stateMutability": "nonpayable",
      "type": "function"
    },
    {
      "constant": false,
      "inputs": [
        {
          "name": "_id",
          "type": "uint256"
        }
      ],
      "name": "issueresolved",
      "outputs": [],
      "payable": false,
      "stateMutability": "nonpayable",
      "type": "function"
    },
    {
      "constant": false,
      "inputs": [
        {
          "name": "_update",
          "type": "string"
        },
        {
          "name": "_id",
          "type": "uint256"
        }
      ],
      "name": "updateprogress",
      "outputs": [],
      "payable": false,
      "stateMutability": "nonpayable",
      "type": "function"
    }
  ],
  "bytecode": "0x608060405260008055600060015534801561001957600080fd5b50610dfd806100296000396000f3fe608060405260043610610083576000357c0100000000000000000000000000000000000000000000000000000000900463ffffffff16806322924c53146100885780634872944c146100b35780634cc167b01461019b5780638deef38f14610297578063a0883af8146102d2578063af640d0f14610362578063c942adf71461038d575b600080fd5b34801561009457600080fd5b5061009d61050e565b6040518082815260200191505060405180910390f35b3480156100bf57600080fd5b50610199600480360360608110156100d657600080fd5b81019080803590602001906401000000008111156100f357600080fd5b82018360208201111561010557600080fd5b8035906020019184600183028401116401000000008311171561012757600080fd5b90919293919293908035906020019064010000000081111561014857600080fd5b82018360208201111561015a57600080fd5b8035906020019184600183028401116401000000008311171561017c57600080fd5b9091929391929390803560ff169060200190929190505050610514565b005b3480156101a757600080fd5b506101d4600480360360208110156101be57600080fd5b8101908080359060200190929190505050610803565b60405180868152602001858152602001806020018481526020018373ffffffffffffffffffffffffffffffffffffffff1673ffffffffffffffffffffffffffffffffffffffff168152602001828103825285818151815260200191508051906020019080838360005b8381101561025857808201518184015260208101905061023d565b50505050905090810190601f1680156102855780820380516001836020036101000a031916815260200191505b50965050505050505060405180910390f35b3480156102a357600080fd5b506102d0600480360360208110156102ba57600080fd5b81019080803590602001909291905050506108f1565b005b3480156102de57600080fd5b50610360600480360360408110156102f557600080fd5b810190808035906020019064010000000081111561031257600080fd5b82018360208201111561032457600080fd5b8035906020019184600183028401116401000000008311171561034657600080fd5b909192939192939080359060200190929190505050610994565b005b34801561036e57600080fd5b50610377610b7a565b6040518082815260200191505060405180910390f35b34801561039957600080fd5b506103c6600480360360208110156103b057600080fd5b8101908080359060200190929190505050610b80565b6040518088815260200180602001806020018760028111156103e457fe5b60ff168152602001861515151581526020018581526020018473ffffffffffffffffffffffffffffffffffffffff1673ffffffffffffffffffffffffffffffffffffffff168152602001838103835289818151815260200191508051906020019080838360005b8381101561046657808201518184015260208101905061044b565b50505050905090810190601f1680156104935780820380516001836020036101000a031916815260200191505b50838103825288818151815260200191508051906020019080838360005b838110156104cc5780820151818401526020810190506104b1565b50505050905090810190601f1680156104f95780820380516001836020036101000a031916815260200191505b50995050505050505050505060405180910390f35b60005481565b600080815480929190600101919050555060e060405190810160405280600054815260200186868080601f016020809104026020016040519081016040528093929190818152602001838380828437600081840152601f19601f82011690508083019250505050505050815260200184848080601f016020809104026020016040519081016040528093929190818152602001838380828437600081840152601f19601f8201169050808301925050505050505081526020018260028111156105d957fe5b81526020016000151581526020014281526020013373ffffffffffffffffffffffffffffffffffffffff168152506002600080548152602001908152602001600020600082015181600001556020820151816001019080519060200190610641929190610d2c565b50604082015181600201908051906020019061065e929190610d2c565b5060608201518160030160006101000a81548160ff0219169083600281111561068357fe5b021790555060808201518160030160016101000a81548160ff02191690831515021790555060a0820151816004015560c08201518160050160006101000a81548173ffffffffffffffffffffffffffffffffffffffff021916908373ffffffffffffffffffffffffffffffffffffffff1602179055509050507f1ffe34df44e5c1f759bd2fecbbd84f5941be0f82d4cc58cf87d366b0392b2fe7600054868686868660004233604051808a8152602001806020018060200187600281111561074757fe5b60ff168152602001861515151581526020018581526020018473ffffffffffffffffffffffffffffffffffffffff1673ffffffffffffffffffffffffffffffffffffffff16815260200183810383528b8b82818152602001925080828437600081840152601f19601f8201169050808301925050508381038252898982818152602001925080828437600081840152601f19601f8201169050808301925050509b50505050505050505050505060405180910390a15050505050565b6003602052806000526040600020600091509050806000015490806001015490806002018054600181600116156101000203166002900480601f0160208091040260200160405190810160405280929190818152602001828054600181600116156101000203166002900480156108bb5780601f10610890576101008083540402835291602001916108bb565b820191906000526020600020905b81548152906001019060200180831161089e57829003601f168201915b5050505050908060030154908060040160009054906101000a900473ffffffffffffffffffffffffffffffffffffffff16905085565b3373ffffffffffffffffffffffffffffffffffffffff166002600083815260200190815260200160002060050160009054906101000a900473ffffffffffffffffffffffffffffffffffffffff1673ffffffffffffffffffffffffffffffffffffffff1614151561096157600080fd5b6001600260008054815260200190815260200160002060030160016101000a81548160ff02191690831515021790555050565b60016000815480929190600101919050555060a060405190810160405280600154815260200182815260200184848080601f016020809104026020016040519081016040528093929190818152602001838380828437600081840152601f19601f8201169050808301925050505050505081526020014281526020013373ffffffffffffffffffffffffffffffffffffffff1681525060036000600154815260200190815260200160002060008201518160000155602082015181600101556040820151816002019080519060200190610a6f929190610d2c565b506060820151816003015560808201518160040160006101000a81548173ffffffffffffffffffffffffffffffffffffffff021916908373ffffffffffffffffffffffffffffffffffffffff1602179055509050507f9b45e478b71c65cf940b57a450551f559efcafd56abbd2d6fd6b8831bdf24ac8600154828585423360405180878152602001868152602001806020018481526020018373ffffffffffffffffffffffffffffffffffffffff1673ffffffffffffffffffffffffffffffffffffffff1681526020018281038252868682818152602001925080828437600081840152601f19601f82011690508083019250505097505050505050505060405180910390a1505050565b60015481565b6002602052806000526040600020600091509050806000015490806001018054600181600116156101000203166002900480601f016020809104026020016040519081016040528092919081815260200182805460018160011615610100020316600290048015610c325780601f10610c0757610100808354040283529160200191610c32565b820191906000526020600020905b815481529060010190602001808311610c1557829003601f168201915b505050505090806002018054600181600116156101000203166002900480601f016020809104026020016040519081016040528092919081815260200182805460018160011615610100020316600290048015610cd05780601f10610ca557610100808354040283529160200191610cd0565b820191906000526020600020905b815481529060010190602001808311610cb357829003601f168201915b5050505050908060030160009054906101000a900460ff16908060030160019054906101000a900460ff16908060040154908060050160009054906101000a900473ffffffffffffffffffffffffffffffffffffffff16905087565b828054600181600116156101000203166002900490600052602060002090601f016020900481019282601f10610d6d57805160ff1916838001178555610d9b565b82800160010185558215610d9b579182015b82811115610d9a578251825591602001919060010190610d7f565b5b509050610da89190610dac565b5090565b610dce91905b80821115610dca576000816000905550600101610db2565b5090565b9056fea165627a7a72305820d3189d40f0002ffd39475b3ac55096b647ed6c2bacca354ea370f9b6a4eb7e590029",
  "source": "pragma solidity ^0.5.0;\r\n//pragma experimental ABIEncoderV2;\r\n\r\ncontract publicFIR {\r\n\r\n    uint public firid= 0;\r\n    uint public id=0;\r\n    \r\n    enum level {low, medium, high}\r\n    \r\n    /*struct time {\r\n        uint year;\r\n        string month;\r\n        uint day;\r\n        uint hour;\r\n        uint minute;\r\n        uint sec;\r\n    }*/\r\n\r\n    struct progress {\r\n        uint id;\r\n        uint firid;\r\n        string update;\r\n        uint timestamp;\r\n        address officer;\r\n    }\r\n\r\n    struct report {\r\n        uint id;\r\n        string name;\r\n        string complaint;\r\n        level imp;\r\n        bool resolved;\r\n        uint timestamp;\r\n        address reporter;\r\n    }\r\n\r\n    mapping(uint => report) public reports; \r\n    mapping(uint => progress) public progresses;\r\n\r\n    event reported (\r\n        uint id,\r\n        string name,\r\n        string complaint,\r\n        level imp,\r\n        bool resolved,\r\n        uint timestamp,\r\n        address reporter\r\n    );\r\n\r\n    event updated (\r\n        uint id,\r\n        uint firid,\r\n        string update,\r\n        uint timestamp,\r\n        address officer\r\n    );\r\n\r\n   /* function converttime(uint _timestamp) private pure returns(time memory){\r\n        time memory convert;\r\n        uint temp;\r\n        _timestamp=((_timestamp+19800));\r\n        convert.sec = _timestamp%60;\r\n        temp = (_timestamp/60);\r\n        convert.minute = temp%60;\r\n        temp = (temp/60);\r\n        convert.hour = temp%24;\r\n        temp = temp/24;\r\n        convert.day = (temp*100%36525)/100;\r\n        temp = (temp*100/36525);\r\n        convert.year = temp+1970;\r\n        if(convert.day<=31){\r\n            convert.month = 'January';\r\n        }\r\n        else if(convert.day<=59){\r\n            convert.month = 'February';\r\n            convert.day -= 31;\r\n        }\r\n        else if(convert.day<=90){\r\n            convert.month = 'March'; \r\n            convert.day -= 28;\r\n        }\r\n        else if(convert.day<=120){\r\n            convert.month = 'April';\r\n            convert.day -= 31;\r\n        }\r\n        else if(convert.day<=151){\r\n            convert.month = 'May';\r\n            convert.day -= 30;\r\n        }\r\n        else if(convert.day<=181){\r\n            convert.month='June';\r\n            convert.day -= 31;\r\n        }\r\n        else if(convert.day<=212){\r\n            convert.month = 'July';\r\n            convert.day -= 30;\r\n        }\r\n        else if(convert.day<=243){\r\n            convert.month = 'August';\r\n            convert.day -= 31;\r\n        }\r\n        else if(convert.day<=273){\r\n            convert.month = 'September';\r\n            convert.day -= 31; \r\n        }\r\n        else if(convert.day<=304){\r\n            convert.month = 'October';\r\n            convert.day -= 30;\r\n        }\r\n        else if(convert.day<=334){\r\n            convert.month = 'November';\r\n            convert.day -= 31;\r\n        }\r\n        else if(convert.day<=365){\r\n            convert.month='December';\r\n            convert.day -= 30;\r\n        }\r\n        return convert;\r\n    }*/\r\n\r\n    function reportcomplaint(string calldata _name, string calldata _complaint, level _imp) external {\r\n        //level _imp = level.low;\r\n        firid++;\r\n        //time memory timestamp = converttime(31536000);\r\n        reports[firid] = report(firid, _name, _complaint, _imp, false, block.timestamp, msg.sender);\r\n        emit reported(firid, _name, _complaint, _imp, false, block.timestamp, msg.sender);\r\n    }\r\n\r\n    function issueresolved(uint _id) public {\r\n        require(reports[_id].reporter == msg.sender);\r\n        //time memory timestamp = converttime(block.timestamp);\r\n        reports[firid].resolved = true;\r\n    }\r\n\r\n    function updateprogress(string calldata _update, uint _id) external {\r\n        id++;\r\n        progresses[id]=progress(id, _id, _update, block.timestamp, msg.sender);\r\n        emit updated(id, _id, _update, block.timestamp, msg.sender);\r\n    }\r\n}",
  "sourcePath": "C:/Users/Raj/Documents/fir/src/contracts/publicFIR.sol",
  "compiler": {
    "name": "solc",
    "version": "0.5.0+commit.1d4f565a.Emscripten.clang"
  },
  "schemaVersion": "3.0.2",
  "updatedAt": "2021-02-25T19:20:48.681Z",
  "devdoc": {
    "methods": {}
  },
  "userdoc": {
    "methods": {}
  }
}